{
  "contractName": "OIO_mother",
  "abi": [
    {
      "inputs": [],
      "stateMutability": "nonpayable",
      "type": "constructor"
    },
    {
      "inputs": [
        {
          "internalType": "uint256",
          "name": "",
          "type": "uint256"
        }
      ],
      "name": "artist_infos",
      "outputs": [
        {
          "internalType": "address",
          "name": "artist_address",
          "type": "address"
        },
        {
          "internalType": "address",
          "name": "minting_contract_address",
          "type": "address"
        }
      ],
      "stateMutability": "view",
      "type": "function"
    },
    {
      "inputs": [],
      "name": "platform_fee",
      "outputs": [
        {
          "internalType": "uint256",
          "name": "",
          "type": "uint256"
        }
      ],
      "stateMutability": "view",
      "type": "function"
    },
    {
      "inputs": [],
      "name": "royalties_fee",
      "outputs": [
        {
          "internalType": "uint256",
          "name": "",
          "type": "uint256"
        }
      ],
      "stateMutability": "view",
      "type": "function"
    },
    {
      "stateMutability": "payable",
      "type": "receive"
    },
    {
      "inputs": [],
      "name": "withdraw_all",
      "outputs": [],
      "stateMutability": "nonpayable",
      "type": "function"
    },
    {
      "inputs": [
        {
          "internalType": "uint256",
          "name": "_artistId",
          "type": "uint256"
        }
      ],
      "name": "getArtistAddress",
      "outputs": [
        {
          "internalType": "address",
          "name": "",
          "type": "address"
        }
      ],
      "stateMutability": "view",
      "type": "function"
    },
    {
      "inputs": [
        {
          "internalType": "uint256",
          "name": "_artistId",
          "type": "uint256"
        }
      ],
      "name": "getMintingContractAddress",
      "outputs": [
        {
          "internalType": "address",
          "name": "",
          "type": "address"
        }
      ],
      "stateMutability": "view",
      "type": "function"
    },
    {
      "inputs": [
        {
          "internalType": "uint256",
          "name": "_artistId",
          "type": "uint256"
        },
        {
          "internalType": "address",
          "name": "artist_address",
          "type": "address"
        },
        {
          "internalType": "address",
          "name": "minting_contract_address",
          "type": "address"
        }
      ],
      "name": "addArtistInfo",
      "outputs": [],
      "stateMutability": "nonpayable",
      "type": "function"
    },
    {
      "inputs": [
        {
          "internalType": "uint256",
          "name": "new_platform_fee",
          "type": "uint256"
        }
      ],
      "name": "set_platform_fee",
      "outputs": [
        {
          "internalType": "bool",
          "name": "success",
          "type": "bool"
        }
      ],
      "stateMutability": "nonpayable",
      "type": "function"
    },
    {
      "inputs": [],
      "name": "get_platform_fee",
      "outputs": [
        {
          "internalType": "uint256",
          "name": "",
          "type": "uint256"
        }
      ],
      "stateMutability": "view",
      "type": "function"
    },
    {
      "inputs": [
        {
          "internalType": "address",
          "name": "_Administrator",
          "type": "address"
        },
        {
          "internalType": "address",
          "name": "_artist_address",
          "type": "address"
        },
        {
          "internalType": "uint256",
          "name": "_artistId",
          "type": "uint256"
        }
      ],
      "name": "deployArtistContract",
      "outputs": [],
      "stateMutability": "payable",
      "type": "function"
    }
  ],
  "bytecode": "0x608060405234801561001057600080fd5b50600a6003819055506032600281905550336000806101000a81548173ffffffffffffffffffffffffffffffffffffffff021916908373ffffffffffffffffffffffffffffffffffffffff1602179055506144ed806100706000396000f3fe608060405260043610620000a35760003560e01c80637baca6cd11620000615780637baca6cd14620001db578063c2ce6ba6146200021f578063cfb551a4146200023f578063dd473d2b146200026f578063f9a9a729146200028957620000ab565b806342684aa714620000b05780634981f2c514620000f55780634d383281146200013957806376477ac1146200017d5780637a7040ca14620001ab57620000ab565b36620000ab57005b600080fd5b348015620000bd57600080fd5b50620000dc6004803603810190620000d69190620007e4565b620002b9565b604051620000ec9291906200091e565b60405180910390f35b3480156200010257600080fd5b506200012160048036038101906200011b9190620007e4565b6200031d565b60405162000130919062000988565b60405180910390f35b3480156200014657600080fd5b506200016560048036038101906200015f9190620007e4565b620003cf565b60405162000174919062000901565b60405180910390f35b3480156200018a57600080fd5b50620001a96004803603810190620001a3919062000810565b62000414565b005b348015620001b857600080fd5b50620001c3620004fe565b604051620001d29190620009c7565b60405180910390f35b348015620001e857600080fd5b50620002076004803603810190620002019190620007e4565b62000504565b60405162000216919062000901565b60405180910390f35b6200023d60048036038101906200023791906200078e565b62000549565b005b3480156200024c57600080fd5b506200025762000633565b604051620002669190620009c7565b60405180910390f35b3480156200027c57600080fd5b506200028762000639565b005b3480156200029657600080fd5b50620002a162000748565b604051620002b09190620009c7565b60405180910390f35b60046020528060005260406000206000915090508060000160009054906101000a900473ffffffffffffffffffffffffffffffffffffffff16908060010160009054906101000a900473ffffffffffffffffffffffffffffffffffffffff16905082565b60008060009054906101000a900473ffffffffffffffffffffffffffffffffffffffff1673ffffffffffffffffffffffffffffffffffffffff163373ffffffffffffffffffffffffffffffffffffffff1614620003b1576040517f08c379a0000000000000000000000000000000000000000000000000000000008152600401620003a890620009a5565b60405180910390fd5b60008211620003bf57600080fd5b8160028190555060019050919050565b6000806004600084815260200190815260200160002090508060000160009054906101000a900473ffffffffffffffffffffffffffffffffffffffff16915050919050565b60405180604001604052808373ffffffffffffffffffffffffffffffffffffffff1681526020018273ffffffffffffffffffffffffffffffffffffffff168152506004600085815260200190815260200160002060008201518160000160006101000a81548173ffffffffffffffffffffffffffffffffffffffff021916908373ffffffffffffffffffffffffffffffffffffffff16021790555060208201518160010160006101000a81548173ffffffffffffffffffffffffffffffffffffffff021916908373ffffffffffffffffffffffffffffffffffffffff160217905550905050505050565b60035481565b6000806004600084815260200190815260200160002090508060000160009054906101000a900473ffffffffffffffffffffffffffffffffffffffff16915050919050565b60008054906101000a900473ffffffffffffffffffffffffffffffffffffffff1673ffffffffffffffffffffffffffffffffffffffff163373ffffffffffffffffffffffffffffffffffffffff1614620005da576040517f08c379a0000000000000000000000000000000000000000000000000000000008152600401620005d190620009a5565b60405180910390fd5b600080309050808585604051620005f19062000752565b620005ff939291906200094b565b604051809103906000f0801580156200061c573d6000803e3d6000fd5b5091506200062c83858462000414565b5050505050565b60025481565b60008054906101000a900473ffffffffffffffffffffffffffffffffffffffff1673ffffffffffffffffffffffffffffffffffffffff163373ffffffffffffffffffffffffffffffffffffffff1614620006ca576040517f08c379a0000000000000000000000000000000000000000000000000000000008152600401620006c190620009a5565b60405180910390fd5b600047905060008111620006dd57600080fd5b60008054906101000a900473ffffffffffffffffffffffffffffffffffffffff1673ffffffffffffffffffffffffffffffffffffffff166108fc829081150290604051600060405180830381858888f1935050505015801562000744573d6000803e3d6000fd5b5050565b6000600254905090565b613a448062000a7483390190565b600081359050620007718162000a3f565b92915050565b600081359050620007888162000a59565b92915050565b600080600060608486031215620007a457600080fd5b6000620007b48682870162000760565b9350506020620007c78682870162000760565b9250506040620007da8682870162000777565b9150509250925092565b600060208284031215620007f757600080fd5b6000620008078482850162000777565b91505092915050565b6000806000606084860312156200082657600080fd5b6000620008368682870162000777565b9350506020620008498682870162000760565b92505060406200085c8682870162000760565b9150509250925092565b6200087181620009f5565b82525050565b620008828162000a09565b82525050565b600062000897602283620009e4565b91507f4f6e6c79206f776e65722063616e2063616c6c20746869732066756e6374696f60008301527f6e2e0000000000000000000000000000000000000000000000000000000000006020830152604082019050919050565b620008fb8162000a35565b82525050565b600060208201905062000918600083018462000866565b92915050565b600060408201905062000935600083018562000866565b62000944602083018462000866565b9392505050565b600060608201905062000962600083018662000866565b62000971602083018562000866565b62000980604083018462000866565b949350505050565b60006020820190506200099f600083018462000877565b92915050565b60006020820190508181036000830152620009c08162000888565b9050919050565b6000602082019050620009de6000830184620008f0565b92915050565b600082825260208201905092915050565b600062000a028262000a15565b9050919050565b60008115159050919050565b600073ffffffffffffffffffffffffffffffffffffffff82169050919050565b6000819050919050565b62000a4a81620009f5565b811462000a5657600080fd5b50565b62000a648162000a35565b811462000a7057600080fd5b5056fe6080604052600a600d556014600e553480156200001b57600080fd5b5060405162003a4438038062003a44833981810160405281019062000041919062000274565b6040518060400160405280600681526020017f4f494f4e465400000000000000000000000000000000000000000000000000008152506040518060400160405280600381526020017f4f494f00000000000000000000000000000000000000000000000000000000008152508160009080519060200190620000c5929190620001ad565b508060019080519060200190620000de929190620001ad565b50505082600960006101000a81548173ffffffffffffffffffffffffffffffffffffffff021916908373ffffffffffffffffffffffffffffffffffffffff16021790555081600a60006101000a81548173ffffffffffffffffffffffffffffffffffffffff021916908373ffffffffffffffffffffffffffffffffffffffff16021790555080600b60006101000a81548173ffffffffffffffffffffffffffffffffffffffff021916908373ffffffffffffffffffffffffffffffffffffffff1602179055505050506200037d565b828054620001bb90620002fe565b90600052602060002090601f016020900481019282620001df57600085556200022b565b82601f10620001fa57805160ff19168380011785556200022b565b828001600101855582156200022b579182015b828111156200022a5782518255916020019190600101906200020d565b5b5090506200023a91906200023e565b5090565b5b80821115620002595760008160009055506001016200023f565b5090565b6000815190506200026e8162000363565b92915050565b6000806000606084860312156200028a57600080fd5b60006200029a868287016200025d565b9350506020620002ad868287016200025d565b9250506040620002c0868287016200025d565b9150509250925092565b6000620002d782620002de565b9050919050565b600073ffffffffffffffffffffffffffffffffffffffff82169050919050565b600060028204905060018216806200031757607f821691505b602082108114156200032e576200032d62000334565b5b50919050565b7f4e487b7100000000000000000000000000000000000000000000000000000000600052602260045260246000fd5b6200036e81620002ca565b81146200037a57600080fd5b50565b6136b7806200038d6000396000f3fe6080604052600436106101395760003560e01c8063a3c0b95b116100ab578063d3335e671161006f578063d3335e6714610459578063d7a5791a14610482578063dd81bdf7146104ab578063e985e9c5146104e8578063eacabe1414610525578063f98cf07c1461054e57610140565b8063a3c0b95b1461034f578063b88d4fde1461038d578063bf06903e146103b6578063c41a360a146103df578063c87b56dd1461041c57610140565b806342842e0e116100fd57806342842e0e1461023c578063513d8a35146102655780636352211e1461028157806370a08231146102be57806395d89b41146102fb578063a22cb4651461032657610140565b806301ffc9a71461014557806306fdde0314610182578063081812fc146101ad578063095ea7b3146101ea57806323b872dd1461021357610140565b3661014057005b600080fd5b34801561015157600080fd5b5061016c60048036038101906101679190612671565b61056a565b6040516101799190612f10565b60405180910390f35b34801561018e57600080fd5b5061019761064c565b6040516101a49190612f6f565b60405180910390f35b3480156101b957600080fd5b506101d460048036038101906101cf91906126c3565b6106de565b6040516101e19190612ea9565b60405180910390f35b3480156101f657600080fd5b50610211600480360381019061020c91906125e6565b610763565b005b34801561021f57600080fd5b5061023a6004803603810190610235919061248c565b61087b565b005b34801561024857600080fd5b50610263600480360381019061025e919061248c565b6108db565b005b61027f600480360381019061027a919061248c565b6108fb565b005b34801561028d57600080fd5b506102a860048036038101906102a391906126c3565b610a27565b6040516102b59190612ea9565b60405180910390f35b3480156102ca57600080fd5b506102e560048036038101906102e09190612427565b610ad9565b6040516102f291906131d1565b60405180910390f35b34801561030757600080fd5b50610310610b91565b60405161031d9190612f6f565b60405180910390f35b34801561033257600080fd5b5061034d60048036038101906103489190612556565b610c23565b005b34801561035b57600080fd5b50610376600480360381019061037191906126c3565b610da4565b604051610384929190612f46565b60405180910390f35b34801561039957600080fd5b506103b460048036038101906103af91906124db565b610de8565b005b3480156103c257600080fd5b506103dd60048036038101906103d89190612622565b610e4a565b005b3480156103eb57600080fd5b50610406600480360381019061040191906126c3565b610ef3565b6040516104139190612ea9565b60405180910390f35b34801561042857600080fd5b50610443600480360381019061043e91906126c3565b610f38565b6040516104509190612f6f565b60405180910390f35b34801561046557600080fd5b50610480600480360381019061047b91906126c3565b61108a565b005b34801561048e57600080fd5b506104a960048036038101906104a491906126c3565b61114c565b005b3480156104b757600080fd5b506104d260048036038101906104cd91906126c3565b61120e565b6040516104df9190612f2b565b60405180910390f35b3480156104f457600080fd5b5061050f600480360381019061050a9190612450565b611233565b60405161051c9190612f10565b60405180910390f35b34801561053157600080fd5b5061054c60048036038101906105479190612592565b6112c7565b005b610568600480360381019061056391906125e6565b611392565b005b60007f80ac58cd000000000000000000000000000000000000000000000000000000007bffffffffffffffffffffffffffffffffffffffffffffffffffffffff1916827bffffffffffffffffffffffffffffffffffffffffffffffffffffffff1916148061063557507f5b5e139f000000000000000000000000000000000000000000000000000000007bffffffffffffffffffffffffffffffffffffffffffffffffffffffff1916827bffffffffffffffffffffffffffffffffffffffffffffffffffffffff1916145b80610645575061064482611559565b5b9050919050565b60606000805461065b90613495565b80601f016020809104026020016040519081016040528092919081815260200182805461068790613495565b80156106d45780601f106106a9576101008083540402835291602001916106d4565b820191906000526020600020905b8154815290600101906020018083116106b757829003601f168201915b5050505050905090565b60006106e9826115c3565b610728576040517f08c379a000000000000000000000000000000000000000000000000000000000815260040161071f90613111565b60405180910390fd5b6004600083815260200190815260200160002060009054906101000a900473ffffffffffffffffffffffffffffffffffffffff169050919050565b600061076e82610a27565b90508073ffffffffffffffffffffffffffffffffffffffff168373ffffffffffffffffffffffffffffffffffffffff1614156107df576040517f08c379a00000000000000000000000000000000000000000000000000000000081526004016107d690613191565b60405180910390fd5b8073ffffffffffffffffffffffffffffffffffffffff166107fe61162f565b73ffffffffffffffffffffffffffffffffffffffff16148061082d575061082c8161082761162f565b611233565b5b61086c576040517f08c379a000000000000000000000000000000000000000000000000000000000815260040161086390613031565b60405180910390fd5b6108768383611637565b505050565b61088c61088661162f565b826116f0565b6108cb576040517f08c379a00000000000000000000000000000000000000000000000000000000081526004016108c2906131b1565b60405180910390fd5b6108d68383836117ce565b505050565b6108f683838360405180602001604052806000815250610de8565b505050565b600a60009054906101000a900473ffffffffffffffffffffffffffffffffffffffff1673ffffffffffffffffffffffffffffffffffffffff163373ffffffffffffffffffffffffffffffffffffffff161461098b576040517f08c379a000000000000000000000000000000000000000000000000000000000815260040161098290613131565b60405180910390fd5b600960009054906101000a900473ffffffffffffffffffffffffffffffffffffffff1673ffffffffffffffffffffffffffffffffffffffff166108fc346064600e546109d79190613316565b6109e19190613347565b9081150290604051600060405180830381858888f19350505050158015610a0c573d6000803e3d6000fd5b50610a188383836108db565b610a228183611a2a565b505050565b6000806002600084815260200190815260200160002060009054906101000a900473ffffffffffffffffffffffffffffffffffffffff169050600073ffffffffffffffffffffffffffffffffffffffff168173ffffffffffffffffffffffffffffffffffffffff161415610ad0576040517f08c379a0000000000000000000000000000000000000000000000000000000008152600401610ac790613071565b60405180910390fd5b80915050919050565b60008073ffffffffffffffffffffffffffffffffffffffff168273ffffffffffffffffffffffffffffffffffffffff161415610b4a576040517f08c379a0000000000000000000000000000000000000000000000000000000008152600401610b4190613051565b60405180910390fd5b600360008373ffffffffffffffffffffffffffffffffffffffff1673ffffffffffffffffffffffffffffffffffffffff168152602001908152602001600020549050919050565b606060018054610ba090613495565b80601f0160208091040260200160405190810160405280929190818152602001828054610bcc90613495565b8015610c195780601f10610bee57610100808354040283529160200191610c19565b820191906000526020600020905b815481529060010190602001808311610bfc57829003601f168201915b5050505050905090565b610c2b61162f565b73ffffffffffffffffffffffffffffffffffffffff168273ffffffffffffffffffffffffffffffffffffffff161415610c99576040517f08c379a0000000000000000000000000000000000000000000000000000000008152600401610c9090612ff1565b60405180910390fd5b8060056000610ca661162f565b73ffffffffffffffffffffffffffffffffffffffff1673ffffffffffffffffffffffffffffffffffffffff16815260200190815260200160002060008473ffffffffffffffffffffffffffffffffffffffff1673ffffffffffffffffffffffffffffffffffffffff16815260200190815260200160002060006101000a81548160ff0219169083151502179055508173ffffffffffffffffffffffffffffffffffffffff16610d5361162f565b73ffffffffffffffffffffffffffffffffffffffff167f17307eab39ab6107e8899845ad3d59bd9653f200f220920489ca2b5937696c3183604051610d989190612f10565b60405180910390a35050565b60086020528060005260406000206000915090508060000154908060010160009054906101000a900473ffffffffffffffffffffffffffffffffffffffff16905082565b610df9610df361162f565b836116f0565b610e38576040517f08c379a0000000000000000000000000000000000000000000000000000000008152600401610e2f906131b1565b60405180910390fd5b610e4484848484611a83565b50505050565b600b60009054906101000a900473ffffffffffffffffffffffffffffffffffffffff1673ffffffffffffffffffffffffffffffffffffffff163373ffffffffffffffffffffffffffffffffffffffff1614610eda576040517f08c379a0000000000000000000000000000000000000000000000000000000008152600401610ed1906130b1565b60405180910390fd5b610ee48383610763565b610eee8282611adf565b505050565b6000806008600084815260200190815260200160002090508060010160009054906101000a900473ffffffffffffffffffffffffffffffffffffffff16915050919050565b6060610f43826115c3565b610f82576040517f08c379a0000000000000000000000000000000000000000000000000000000008152600401610f79906130f1565b60405180910390fd5b6000600760008481526020019081526020016000208054610fa290613495565b80601f0160208091040260200160405190810160405280929190818152602001828054610fce90613495565b801561101b5780601f10610ff05761010080835404028352916020019161101b565b820191906000526020600020905b815481529060010190602001808311610ffe57829003601f168201915b50505050509050600061102c611afe565b9050600081511415611042578192505050611085565b60008251111561107757808260405160200161105f929190612e85565b60405160208183030381529060405292505050611085565b61108084611b15565b925050505b919050565b600a60009054906101000a900473ffffffffffffffffffffffffffffffffffffffff1673ffffffffffffffffffffffffffffffffffffffff163373ffffffffffffffffffffffffffffffffffffffff161461111a576040517f08c379a000000000000000000000000000000000000000000000000000000000815260040161111190613131565b60405180910390fd5b6000811015801561113957506064600e548261113691906132c0565b11155b61114257600080fd5b80600d8190555050565b600a60009054906101000a900473ffffffffffffffffffffffffffffffffffffffff1673ffffffffffffffffffffffffffffffffffffffff163373ffffffffffffffffffffffffffffffffffffffff16146111dc576040517f08c379a00000000000000000000000000000000000000000000000000000000081526004016111d390613131565b60405180910390fd5b600081101580156111fb57506064600d54826111f891906132c0565b11155b61120457600080fd5b80600e8190555050565b6000806008600084815260200190815260200160002090508060000154915050919050565b6000600560008473ffffffffffffffffffffffffffffffffffffffff1673ffffffffffffffffffffffffffffffffffffffff16815260200190815260200160002060008373ffffffffffffffffffffffffffffffffffffffff1673ffffffffffffffffffffffffffffffffffffffff16815260200190815260200160002060009054906101000a900460ff16905092915050565b600b60009054906101000a900473ffffffffffffffffffffffffffffffffffffffff1673ffffffffffffffffffffffffffffffffffffffff163373ffffffffffffffffffffffffffffffffffffffff1614611357576040517f08c379a000000000000000000000000000000000000000000000000000000000815260040161134e906130b1565b60405180910390fd5b6113616006611bbc565b600061136d6006611bd3565b90506113798382611be2565b6113838183611db0565b61138d8184611e24565b505050565b60006008600083815260200190815260200160002060000154121580156113ba575060003410155b6113c357600080fd5b600960009054906101000a900473ffffffffffffffffffffffffffffffffffffffff1673ffffffffffffffffffffffffffffffffffffffff166108fc346064600e5461140f9190613316565b6114199190613347565b9081150290604051600060405180830381858888f19350505050158015611444573d6000803e3d6000fd5b50600b60009054906101000a900473ffffffffffffffffffffffffffffffffffffffff1673ffffffffffffffffffffffffffffffffffffffff166108fc346064600d546114919190613316565b61149b9190613347565b9081150290604051600060405180830381858888f193505050501580156114c6573d6000803e3d6000fd5b508173ffffffffffffffffffffffffffffffffffffffff166108fc346064600e54600d5460646114f691906133a1565b61150091906133a1565b61150a9190613316565b6115149190613347565b9081150290604051600060405180830381858888f1935050505015801561153f573d6000803e3d6000fd5b5061154b8233836108db565b6115558133611a2a565b5050565b60007f01ffc9a7000000000000000000000000000000000000000000000000000000007bffffffffffffffffffffffffffffffffffffffffffffffffffffffff1916827bffffffffffffffffffffffffffffffffffffffffffffffffffffffff1916149050919050565b60008073ffffffffffffffffffffffffffffffffffffffff166002600084815260200190815260200160002060009054906101000a900473ffffffffffffffffffffffffffffffffffffffff1673ffffffffffffffffffffffffffffffffffffffff1614159050919050565b600033905090565b816004600083815260200190815260200160002060006101000a81548173ffffffffffffffffffffffffffffffffffffffff021916908373ffffffffffffffffffffffffffffffffffffffff160217905550808273ffffffffffffffffffffffffffffffffffffffff166116aa83610a27565b73ffffffffffffffffffffffffffffffffffffffff167f8c5be1e5ebec7d5bd14f71427d1e84f3dd0314c0f7b2291e5b200ac8c7c3b92560405160405180910390a45050565b60006116fb826115c3565b61173a576040517f08c379a000000000000000000000000000000000000000000000000000000000815260040161173190613011565b60405180910390fd5b600061174583610a27565b90508073ffffffffffffffffffffffffffffffffffffffff168473ffffffffffffffffffffffffffffffffffffffff1614806117b457508373ffffffffffffffffffffffffffffffffffffffff1661179c846106de565b73ffffffffffffffffffffffffffffffffffffffff16145b806117c557506117c48185611233565b5b91505092915050565b8273ffffffffffffffffffffffffffffffffffffffff166117ee82610a27565b73ffffffffffffffffffffffffffffffffffffffff1614611844576040517f08c379a000000000000000000000000000000000000000000000000000000000815260040161183b90613151565b60405180910390fd5b600073ffffffffffffffffffffffffffffffffffffffff168273ffffffffffffffffffffffffffffffffffffffff1614156118b4576040517f08c379a00000000000000000000000000000000000000000000000000000000081526004016118ab90612fd1565b60405180910390fd5b6118bf838383611eda565b6118ca600082611637565b6001600360008573ffffffffffffffffffffffffffffffffffffffff1673ffffffffffffffffffffffffffffffffffffffff168152602001908152602001600020600082825461191a91906133a1565b925050819055506001600360008473ffffffffffffffffffffffffffffffffffffffff1673ffffffffffffffffffffffffffffffffffffffff168152602001908152602001600020600082825461197191906132c0565b92505081905550816002600083815260200190815260200160002060006101000a81548173ffffffffffffffffffffffffffffffffffffffff021916908373ffffffffffffffffffffffffffffffffffffffff160217905550808273ffffffffffffffffffffffffffffffffffffffff168473ffffffffffffffffffffffffffffffffffffffff167fddf252ad1be2c89b69c2b068fc378daa952ba7f163c4a11628f55a4df523b3ef60405160405180910390a4505050565b806008600084815260200190815260200160002060010160006101000a81548173ffffffffffffffffffffffffffffffffffffffff021916908373ffffffffffffffffffffffffffffffffffffffff1602179055505050565b611a8e8484846117ce565b611a9a84848484611edf565b611ad9576040517f08c379a0000000000000000000000000000000000000000000000000000000008152600401611ad090612f91565b60405180910390fd5b50505050565b8060086000848152602001908152602001600020600001819055505050565b606060405180602001604052806000815250905090565b6060611b20826115c3565b611b5f576040517f08c379a0000000000000000000000000000000000000000000000000000000008152600401611b5690613171565b60405180910390fd5b6000611b69611afe565b90506000815111611b895760405180602001604052806000815250611bb4565b80611b9384612076565b604051602001611ba4929190612e85565b6040516020818303038152906040525b915050919050565b600160066000016000828254019250508190555050565b60006006600001549050919050565b600073ffffffffffffffffffffffffffffffffffffffff168273ffffffffffffffffffffffffffffffffffffffff161415611c52576040517f08c379a0000000000000000000000000000000000000000000000000000000008152600401611c49906130d1565b60405180910390fd5b611c5b816115c3565b15611c9b576040517f08c379a0000000000000000000000000000000000000000000000000000000008152600401611c9290612fb1565b60405180910390fd5b611ca760008383611eda565b6001600360008473ffffffffffffffffffffffffffffffffffffffff1673ffffffffffffffffffffffffffffffffffffffff1681526020019081526020016000206000828254611cf791906132c0565b92505081905550816002600083815260200190815260200160002060006101000a81548173ffffffffffffffffffffffffffffffffffffffff021916908373ffffffffffffffffffffffffffffffffffffffff160217905550808273ffffffffffffffffffffffffffffffffffffffff16600073ffffffffffffffffffffffffffffffffffffffff167fddf252ad1be2c89b69c2b068fc378daa952ba7f163c4a11628f55a4df523b3ef60405160405180910390a45050565b611db9826115c3565b611df8576040517f08c379a0000000000000000000000000000000000000000000000000000000008152600401611def90613091565b60405180910390fd5b80600760008481526020019081526020016000209080519060200190611e1f929190612236565b505050565b60405180604001604052807fffffffffffffffffffffffffffffffffffffffffffffffffffffffffffffffff81526020018273ffffffffffffffffffffffffffffffffffffffff16815250600860008481526020019081526020016000206000820151816000015560208201518160010160006101000a81548173ffffffffffffffffffffffffffffffffffffffff021916908373ffffffffffffffffffffffffffffffffffffffff1602179055509050505050565b505050565b6000611f008473ffffffffffffffffffffffffffffffffffffffff16612223565b15612069578373ffffffffffffffffffffffffffffffffffffffff1663150b7a02611f2961162f565b8786866040518563ffffffff1660e01b8152600401611f4b9493929190612ec4565b602060405180830381600087803b158015611f6557600080fd5b505af1925050508015611f9657506040513d601f19601f82011682018060405250810190611f93919061269a565b60015b612019573d8060008114611fc6576040519150601f19603f3d011682016040523d82523d6000602084013e611fcb565b606091505b50600081511415612011576040517f08c379a000000000000000000000000000000000000000000000000000000000815260040161200890612f91565b60405180910390fd5b805181602001fd5b63150b7a0260e01b7bffffffffffffffffffffffffffffffffffffffffffffffffffffffff1916817bffffffffffffffffffffffffffffffffffffffffffffffffffffffff19161491505061206e565b600190505b949350505050565b606060008214156120be576040518060400160405280600181526020017f3000000000000000000000000000000000000000000000000000000000000000815250905061221e565b600082905060005b600082146120f05780806120d9906134c7565b915050600a826120e99190613316565b91506120c6565b60008167ffffffffffffffff811115612132577f4e487b7100000000000000000000000000000000000000000000000000000000600052604160045260246000fd5b6040519080825280601f01601f1916602001820160405280156121645781602001600182028036833780820191505090505b5090505b600085146122175760018261217d91906133a1565b9150600a8561218c9190613510565b603061219891906132c0565b60f81b8183815181106121d4577f4e487b7100000000000000000000000000000000000000000000000000000000600052603260045260246000fd5b60200101907effffffffffffffffffffffffffffffffffffffffffffffffffffffffffffff1916908160001a905350600a856122109190613316565b9450612168565b8093505050505b919050565b600080823b905060008111915050919050565b82805461224290613495565b90600052602060002090601f01602090048101928261226457600085556122ab565b82601f1061227d57805160ff19168380011785556122ab565b828001600101855582156122ab579182015b828111156122aa57825182559160200191906001019061228f565b5b5090506122b891906122bc565b5090565b5b808211156122d55760008160009055506001016122bd565b5090565b60006122ec6122e78461321d565b6131ec565b90508281526020810184848401111561230457600080fd5b61230f848285613453565b509392505050565b600061232a6123258461324d565b6131ec565b90508281526020810184848401111561234257600080fd5b61234d848285613453565b509392505050565b6000813590506123648161360e565b92915050565b60008135905061237981613625565b92915050565b60008135905061238e8161363c565b92915050565b6000815190506123a38161363c565b92915050565b600082601f8301126123ba57600080fd5b81356123ca8482602086016122d9565b91505092915050565b6000813590506123e281613653565b92915050565b600082601f8301126123f957600080fd5b8135612409848260208601612317565b91505092915050565b6000813590506124218161366a565b92915050565b60006020828403121561243957600080fd5b600061244784828501612355565b91505092915050565b6000806040838503121561246357600080fd5b600061247185828601612355565b925050602061248285828601612355565b9150509250929050565b6000806000606084860312156124a157600080fd5b60006124af86828701612355565b93505060206124c086828701612355565b92505060406124d186828701612412565b9150509250925092565b600080600080608085870312156124f157600080fd5b60006124ff87828801612355565b945050602061251087828801612355565b935050604061252187828801612412565b925050606085013567ffffffffffffffff81111561253e57600080fd5b61254a878288016123a9565b91505092959194509250565b6000806040838503121561256957600080fd5b600061257785828601612355565b92505060206125888582860161236a565b9150509250929050565b600080604083850312156125a557600080fd5b60006125b385828601612355565b925050602083013567ffffffffffffffff8111156125d057600080fd5b6125dc858286016123e8565b9150509250929050565b600080604083850312156125f957600080fd5b600061260785828601612355565b925050602061261885828601612412565b9150509250929050565b60008060006060848603121561263757600080fd5b600061264586828701612355565b935050602061265686828701612412565b9250506040612667868287016123d3565b9150509250925092565b60006020828403121561268357600080fd5b60006126918482850161237f565b91505092915050565b6000602082840312156126ac57600080fd5b60006126ba84828501612394565b91505092915050565b6000602082840312156126d557600080fd5b60006126e384828501612412565b91505092915050565b6126f5816133d5565b82525050565b612704816133e7565b82525050565b60006127158261327d565b61271f8185613293565b935061272f818560208601613462565b612738816135fd565b840191505092915050565b61274c8161341f565b82525050565b600061275d82613288565b61276781856132a4565b9350612777818560208601613462565b612780816135fd565b840191505092915050565b600061279682613288565b6127a081856132b5565b93506127b0818560208601613462565b80840191505092915050565b60006127c96032836132a4565b91507f4552433732313a207472616e7366657220746f206e6f6e20455243373231526560008301527f63656976657220696d706c656d656e74657200000000000000000000000000006020830152604082019050919050565b600061282f601c836132a4565b91507f4552433732313a20746f6b656e20616c7265616479206d696e746564000000006000830152602082019050919050565b600061286f6024836132a4565b91507f4552433732313a207472616e7366657220746f20746865207a65726f2061646460008301527f72657373000000000000000000000000000000000000000000000000000000006020830152604082019050919050565b60006128d56019836132a4565b91507f4552433732313a20617070726f766520746f2063616c6c6572000000000000006000830152602082019050919050565b6000612915602c836132a4565b91507f4552433732313a206f70657261746f7220717565727920666f72206e6f6e657860008301527f697374656e7420746f6b656e00000000000000000000000000000000000000006020830152604082019050919050565b600061297b6038836132a4565b91507f4552433732313a20617070726f76652063616c6c6572206973206e6f74206f7760008301527f6e6572206e6f7220617070726f76656420666f7220616c6c00000000000000006020830152604082019050919050565b60006129e1602a836132a4565b91507f4552433732313a2062616c616e636520717565727920666f7220746865207a6560008301527f726f2061646472657373000000000000000000000000000000000000000000006020830152604082019050919050565b6000612a476029836132a4565b91507f4552433732313a206f776e657220717565727920666f72206e6f6e657869737460008301527f656e7420746f6b656e00000000000000000000000000000000000000000000006020830152604082019050919050565b6000612aad602e836132a4565b91507f45524337323155524953746f726167653a2055524920736574206f66206e6f6e60008301527f6578697374656e7420746f6b656e0000000000000000000000000000000000006020830152604082019050919050565b6000612b136023836132a4565b91507f4f6e6c79206172746973742063616e2063616c6c20746869732066756e63746960008301527f6f6e2e00000000000000000000000000000000000000000000000000000000006020830152604082019050919050565b6000612b796020836132a4565b91507f4552433732313a206d696e7420746f20746865207a65726f20616464726573736000830152602082019050919050565b6000612bb96031836132a4565b91507f45524337323155524953746f726167653a2055524920717565727920666f722060008301527f6e6f6e6578697374656e7420746f6b656e0000000000000000000000000000006020830152604082019050919050565b6000612c1f602c836132a4565b91507f4552433732313a20617070726f76656420717565727920666f72206e6f6e657860008301527f697374656e7420746f6b656e00000000000000000000000000000000000000006020830152604082019050919050565b6000612c856022836132a4565b91507f4f6e6c792061646d696e2063616e2063616c6c20746869732066756e6374696f60008301527f6e2e0000000000000000000000000000000000000000000000000000000000006020830152604082019050919050565b6000612ceb6029836132a4565b91507f4552433732313a207472616e73666572206f6620746f6b656e2074686174206960008301527f73206e6f74206f776e00000000000000000000000000000000000000000000006020830152604082019050919050565b6000612d51602f836132a4565b91507f4552433732314d657461646174613a2055524920717565727920666f72206e6f60008301527f6e6578697374656e7420746f6b656e00000000000000000000000000000000006020830152604082019050919050565b6000612db76021836132a4565b91507f4552433732313a20617070726f76616c20746f2063757272656e74206f776e6560008301527f72000000000000000000000000000000000000000000000000000000000000006020830152604082019050919050565b6000612e1d6031836132a4565b91507f4552433732313a207472616e736665722063616c6c6572206973206e6f74206f60008301527f776e6572206e6f7220617070726f7665640000000000000000000000000000006020830152604082019050919050565b612e7f81613449565b82525050565b6000612e91828561278b565b9150612e9d828461278b565b91508190509392505050565b6000602082019050612ebe60008301846126ec565b92915050565b6000608082019050612ed960008301876126ec565b612ee660208301866126ec565b612ef36040830185612e76565b8181036060830152612f05818461270a565b905095945050505050565b6000602082019050612f2560008301846126fb565b92915050565b6000602082019050612f406000830184612743565b92915050565b6000604082019050612f5b6000830185612743565b612f6860208301846126ec565b9392505050565b60006020820190508181036000830152612f898184612752565b905092915050565b60006020820190508181036000830152612faa816127bc565b9050919050565b60006020820190508181036000830152612fca81612822565b9050919050565b60006020820190508181036000830152612fea81612862565b9050919050565b6000602082019050818103600083015261300a816128c8565b9050919050565b6000602082019050818103600083015261302a81612908565b9050919050565b6000602082019050818103600083015261304a8161296e565b9050919050565b6000602082019050818103600083015261306a816129d4565b9050919050565b6000602082019050818103600083015261308a81612a3a565b9050919050565b600060208201905081810360008301526130aa81612aa0565b9050919050565b600060208201905081810360008301526130ca81612b06565b9050919050565b600060208201905081810360008301526130ea81612b6c565b9050919050565b6000602082019050818103600083015261310a81612bac565b9050919050565b6000602082019050818103600083015261312a81612c12565b9050919050565b6000602082019050818103600083015261314a81612c78565b9050919050565b6000602082019050818103600083015261316a81612cde565b9050919050565b6000602082019050818103600083015261318a81612d44565b9050919050565b600060208201905081810360008301526131aa81612daa565b9050919050565b600060208201905081810360008301526131ca81612e10565b9050919050565b60006020820190506131e66000830184612e76565b92915050565b6000604051905081810181811067ffffffffffffffff82111715613213576132126135ce565b5b8060405250919050565b600067ffffffffffffffff821115613238576132376135ce565b5b601f19601f8301169050602081019050919050565b600067ffffffffffffffff821115613268576132676135ce565b5b601f19601f8301169050602081019050919050565b600081519050919050565b600081519050919050565b600082825260208201905092915050565b600082825260208201905092915050565b600081905092915050565b60006132cb82613449565b91506132d683613449565b9250827fffffffffffffffffffffffffffffffffffffffffffffffffffffffffffffffff0382111561330b5761330a613541565b5b828201905092915050565b600061332182613449565b915061332c83613449565b92508261333c5761333b613570565b5b828204905092915050565b600061335282613449565b915061335d83613449565b9250817fffffffffffffffffffffffffffffffffffffffffffffffffffffffffffffffff048311821515161561339657613395613541565b5b828202905092915050565b60006133ac82613449565b91506133b783613449565b9250828210156133ca576133c9613541565b5b828203905092915050565b60006133e082613429565b9050919050565b60008115159050919050565b60007fffffffff0000000000000000000000000000000000000000000000000000000082169050919050565b6000819050919050565b600073ffffffffffffffffffffffffffffffffffffffff82169050919050565b6000819050919050565b82818337600083830152505050565b60005b83811015613480578082015181840152602081019050613465565b8381111561348f576000848401525b50505050565b600060028204905060018216806134ad57607f821691505b602082108114156134c1576134c061359f565b5b50919050565b60006134d282613449565b91507fffffffffffffffffffffffffffffffffffffffffffffffffffffffffffffffff82141561350557613504613541565b5b600182019050919050565b600061351b82613449565b915061352683613449565b92508261353657613535613570565b5b828206905092915050565b7f4e487b7100000000000000000000000000000000000000000000000000000000600052601160045260246000fd5b7f4e487b7100000000000000000000000000000000000000000000000000000000600052601260045260246000fd5b7f4e487b7100000000000000000000000000000000000000000000000000000000600052602260045260246000fd5b7f4e487b7100000000000000000000000000000000000000000000000000000000600052604160045260246000fd5b6000601f19601f8301169050919050565b613617816133d5565b811461362257600080fd5b50565b61362e816133e7565b811461363957600080fd5b50565b613645816133f3565b811461365057600080fd5b50565b61365c8161341f565b811461366757600080fd5b50565b61367381613449565b811461367e57600080fd5b5056fea2646970667358221220a6013be2337f2a183af63a403fbddffd5b5c0ed95520f1c31b37f8328a03ab1664736f6c63430008000033a2646970667358221220b2b6fc849d98b587d89c5406bd8830cd807b52b4f6d10799381f4e40379bff0c64736f6c63430008000033",
  "immutableReferences": {},
  "source": "// SPDX-License-Identifier: MIT\r\npragma solidity ^0.8.0;\r\n\r\nimport \"@openzeppelin/contracts/token/ERC721/ERC721.sol\";\r\nimport \"./daughter_contract.sol\";\r\n\r\n\r\n// public - all can access\r\n// external - Cannot be accessed internally, only externally\r\n// internal - only this contract and contracts deriving from it can access\r\n// private - can be accessed only from this contract\r\n\r\n// contract daughter_contract is ERC721 {\r\n\r\n//     // using Counters for Counters.Counter;\r\n//     // Roles is depreciated\r\n//     // using Roles for Roles.Role;\r\n//     // counter private _tokenIdCounter;\r\n\r\n//     //Replaces Counter\r\n//     struct Counter {\r\n//         uint256 _value;\r\n//     }\r\n    \r\n//      Counter counter;\r\n\r\n//     function current(Counter storage) internal view returns (uint256) {\r\n//         return counter._value;\r\n//     }\r\n\r\n//     function increment(Counter storage) internal {\r\n//         unchecked {\r\n//              counter._value += 1;\r\n//         }\r\n//     }\r\n\r\n//     //TokenURI Handling \r\n\r\n//     using Strings for uint256;\r\n//     mapping(uint256 => string) private _tokenURIs;\r\n\r\n//     function tokenURI(uint256 tokenId) public view virtual override returns (string memory) {\r\n//         require(_exists(tokenId), \"ERC721URIStorage: URI query for nonexistent token\");\r\n\r\n//         string memory _tokenURI = _tokenURIs[tokenId];\r\n//         string memory base = _baseURI();\r\n\r\n//         // If there is no base URI, return the token URI.\r\n//         if (bytes(base).length == 0) {\r\n//             return _tokenURI;\r\n//         }\r\n//         // If both are set, concatenate the baseURI and tokenURI (via abi.encodePacked).\r\n//         if (bytes(_tokenURI).length > 0) {\r\n//             return string(abi.encodePacked(base, _tokenURI));\r\n//         }\r\n\r\n//         return super.tokenURI(tokenId);\r\n//     }\r\n\r\n//     function _setTokenURI(uint256 tokenId, string memory _tokenURI) internal virtual {\r\n//         require(_exists(tokenId), \"ERC721URIStorage: URI set of nonexistent token\");\r\n//         _tokenURIs[tokenId] = _tokenURI;\r\n//     }\r\n    \r\n//     //The next chunk of code provides a struct to manage the payment and ownership of the NFT\r\n//     struct NFT {\r\n//         int minPayment;\r\n//         address owner;\r\n//     }\r\n//     mapping (uint256 => NFT) public NFTs;\r\n    \r\n    \r\n//     // Get\r\n//     // do not need to create \r\n//     function getMinPayment(uint256 _tokenId) public view returns (int) {\r\n//         NFT storage tokenId = NFTs[_tokenId];\r\n//         return tokenId.minPayment;\r\n//     }\r\n//     function getOwner(uint256 _tokenId) public view returns (address) {\r\n//         NFT storage tokenId = NFTs[_tokenId];\r\n//         return tokenId.owner;\r\n//     }\r\n    \r\n    \r\n//     // Update\r\n//     function updateMinPayment(uint256 _tokenId, int newMinPayment) internal {\r\n//         NFTs[_tokenId].minPayment = newMinPayment;\r\n//     }\r\n//     function updateOwner(uint256 _tokenId, address _owner) internal  {\r\n//         NFTs[_tokenId].owner = _owner ;\r\n//     }\r\n    \r\n//     // Create\r\n//     function addNFT(uint256 _tokenId, address owner) internal {\r\n//         NFTs[_tokenId] = NFT({ minPayment : -1, owner: owner});\r\n//     }\r\n    \r\n    \r\n//     // Declerations to initalise\r\n//     address oio_sc_address;\r\n//     address Administrator;\r\n//     address Artist; \r\n//     address current_baby_contract;\r\n//     uint256 royalties_fee = 10;\r\n//     uint256 platform_fee = 20;\r\n\r\n//     constructor (address _oio ,address _Administrator, address _Artist) ERC721(\"OIONFT\", \"OIO\") {\r\n//         oio_sc_address = _oio;\r\n//         Administrator = _Administrator;\r\n//         Artist = _Artist;\r\n//     }\r\n\r\n    \r\n//     modifier onlyAdmin {\r\n//         require(\r\n//             msg.sender == Administrator,\r\n//             \"Only admin can call this function.\"\r\n//         );\r\n//         _;\r\n//     }\r\n\r\n    \r\n//     modifier onlyArtist {\r\n//         require(\r\n//             msg.sender == Artist,\r\n//             \"Only artist can call this function.\"\r\n//         );\r\n//         _;\r\n//     }\r\n\r\n//     // For SC to accept Ether\r\n//         receive() external payable {\r\n//     }\r\n\r\n\r\n//     function allowTransfer(address buyer, uint256 tokenId, int256 newMinPayment) public onlyArtist {\r\n//         // Allow a buyer to transfer token \r\n//         approve(buyer, tokenId);\r\n//         // Allow transfer for a certain price\r\n//         updateMinPayment(tokenId, newMinPayment);\r\n//     }\r\n    \r\n//     function purchaseNFT(address owner, address buyer, uint256 _tokenId) public payable onlyAdmin {\r\n//         // make payment to OIO \r\n//         payable(oio_sc_address).transfer((platform_fee/100)*msg.value);\r\n//         safeTransferFrom(owner, buyer, _tokenId);\r\n//         updateOwner(_tokenId, buyer);\r\n//     }\r\n    \r\n\r\n//     // Do the dependent functions inherit payable descriptor\r\n//     // Possibly remove salePrice\r\n//     function makePayment(address owner, uint256 _tokenId) public payable  {\r\n//         // price is as per expected\r\n//         require(NFTs[_tokenId].minPayment >= 0 && msg.value >= 0);\r\n        \r\n//         // make payment to OIO\r\n//         payable(oio_sc_address).transfer((platform_fee/100)*msg.value);    \r\n        \r\n//         // make payment to artist\r\n//         payable(Artist).transfer((royalties_fee/100)*msg.value);\r\n        \r\n//         // makePaymentToOwner(owner, salePrice);\r\n//         payable(owner).transfer((100 - royalties_fee - platform_fee)/100 * msg.value);\r\n        \r\n//         safeTransferFrom(owner, msg.sender, _tokenId);   \r\n//         updateOwner(_tokenId, msg.sender);\r\n//     }\r\n    \r\n//     // Change Platform fee\r\n//     function changePlatformFee (uint256 newPlatformFee) public onlyAdmin {\r\n//         require(newPlatformFee >= 0 && (newPlatformFee + royalties_fee ) <= 100 );\r\n//         platform_fee = newPlatformFee;\r\n//     }\r\n\r\n//     // NEED A Seperate role to add both admin & artist if required. \r\n//     function changeRoyalties (uint256 newRoyalties) public onlyAdmin {\r\n//         require(newRoyalties >= 0 && (newRoyalties + platform_fee) <=100 );\r\n//         royalties_fee = newRoyalties;\r\n//     }\r\n\r\n//     // Artist creates NFT\r\n//     function mintNFT(address nftOwner, string memory _tokenURI)\r\n//         public onlyArtist\r\n//     {\r\n//         increment(counter);\r\n//         uint256 tokenId = current(counter);\r\n//         _mint(nftOwner, tokenId);\r\n//         _setTokenURI(tokenId, _tokenURI);\r\n//         addNFT(tokenId, nftOwner);\r\n//     }\r\n\r\n//     function safeMint(address to, string memory _tokenURI) internal {\r\n//         _safeMint(to, current(counter));\r\n//         _setTokenURI(current(counter), _tokenURI);\r\n//         increment(counter);\r\n//     }\r\n// }\r\n\r\n\r\n\r\ncontract OIO_mother {\r\n\r\n    constructor () {\r\n        //default royalties value \r\n        royalties_fee = 10;\r\n        // percentage \r\n        platform_fee = 50;\r\n        owner = msg.sender;\r\n    \r\n    }\r\n\r\n    // address payable public baby_contract;\r\n    // owner allowed to withdraw\r\n    address owner;\r\n    uint256 amount_received; \r\n    uint256 public platform_fee;\r\n    uint256 public royalties_fee;\r\n\r\n\r\n    // Replaces Ownable, only owner can utilise function  \r\n      modifier onlyOwner {\r\n        require(\r\n            msg.sender == owner,\r\n            \"Only owner can call this function.\"\r\n        );\r\n        _;\r\n    }\r\n\r\n    //Replaces Counter (if required)\r\n    // struct counter {\r\n    //     uint256 _value;\r\n    // }\r\n\r\n    // function current(Counter storage counter) internal view returns (uint256) {\r\n    //     return counter._value;\r\n    // }\r\n\r\n    // function increment(Counter storage counter) internal {\r\n    //     unchecked {\r\n    //         counter._value += 1;\r\n    //     }\r\n    // }\r\n    \r\n    function withdraw_all() public onlyOwner {\r\n        // HOW to contract amount amount?\r\n        uint amount = address(this).balance;\r\n        require (amount>0);\r\n        payable(owner).transfer(amount);\r\n    }\r\n\r\n    // Working struct with getters and setters \r\n    struct artist {\r\n        address artist_address;\r\n        address minting_contract_address; \r\n    }\r\n\r\n    mapping (uint256 => artist) public artist_infos;\r\n\r\n    function getArtistAddress(uint256 _artistId) public view returns (address) {\r\n        artist storage artist_info = artist_infos[_artistId];\r\n        return artist_info.artist_address;\r\n    }\r\n    function getMintingContractAddress(uint256 _artistId) public view returns (address) {\r\n        artist storage artist_info = artist_infos[_artistId];\r\n        return artist_info.artist_address;\r\n    }\r\n\r\n    // Set\r\n    function addArtistInfo(uint256 _artistId, address artist_address, address minting_contract_address) public{\r\n        artist_infos[_artistId] = artist({ artist_address : artist_address, minting_contract_address: minting_contract_address});\r\n    }\r\n\r\n    \r\n    receive() external payable {\r\n    }\r\n    \r\n    function set_platform_fee (uint256 new_platform_fee) public onlyOwner returns (bool success){\r\n        require(new_platform_fee>0);\r\n        platform_fee = new_platform_fee;\r\n        return true;\r\n    }\r\n    // Called by baby contract \r\n    function get_platform_fee() public view returns (uint256){\r\n        return platform_fee;\r\n    }\r\n\r\n    //START OF COMMENT\r\n    function deployArtistContract(address _Administrator, address _artist_address, uint256 _artistId) public payable onlyOwner {\r\n\r\n        // address daughter_address; \r\n        address daughter;\r\n        address _OIO=address(this);\r\n        // daughter_contract daughter = new daughter_contract(_OIO,_Administrator,_artist_address);\r\n        // daughter_address = address(daughter_contract);\r\n        daughter = address(new daughter_contract(_OIO,_Administrator,_artist_address));\r\n        \r\n        // once initialized, log data into mother contract\r\n        addArtistInfo(_artistId, _artist_address, daughter);\r\n    }\r\n\r\n\r\n\r\n}",
  "sourcePath": "C:\\wamp64\\www\\freshStart\\contracts\\OIO_mother.sol",
  "compiler": {
    "name": "solc",
    "version": "0.8.0+commit.c7dfd78e.Emscripten.clang"
  },
  "schemaVersion": "3.4.3",
  "updatedAt": "2021-08-19T09:42:46.738Z",
  "devdoc": {
    "kind": "dev",
    "methods": {},
    "version": 1
  },
  "userdoc": {
    "kind": "user",
    "methods": {},
    "version": 1
  }
}